{
  "contractName": "DebugMsg",
  "abi": [
    {
      "inputs": [],
      "stateMutability": "nonpayable",
      "type": "constructor"
    },
    {
      "inputs": [
        {
          "internalType": "uint256",
          "name": "_num",
          "type": "uint256"
        }
      ],
      "name": "updateCounter",
      "outputs": [
        {
          "internalType": "uint256",
          "name": "",
          "type": "uint256"
        }
      ],
      "stateMutability": "nonpayable",
      "type": "function"
    },
    {
      "inputs": [
        {
          "internalType": "uint256",
          "name": "_num",
          "type": "uint256"
        }
      ],
      "name": "returnParam",
      "outputs": [
        {
          "internalType": "uint256",
          "name": "",
          "type": "uint256"
        }
      ],
      "stateMutability": "pure",
      "type": "function",
      "constant": true
    },
    {
      "inputs": [],
      "name": "getByte32",
      "outputs": [
        {
          "internalType": "bytes32",
          "name": "",
          "type": "bytes32"
        }
      ],
      "stateMutability": "view",
      "type": "function",
      "constant": true
    }
  ],
  "bytecode": "0x60806040526000805534801561001457600080fd5b5061037f806100246000396000f3fe608060405234801561001057600080fd5b50600436106100415760003560e01c8063baefd9c914610046578063c648049d14610064578063dd023e1b14610094575b600080fd5b61004e6100c4565b60405161005b91906101bc565b60405180910390f35b61007e60048036038101906100799190610212565b6100fe565b60405161008b919061024e565b60405180910390f35b6100ae60048036038101906100a99190610212565b610154565b6040516100bb919061024e565b60405180910390f35b600060017fa3f0ad74e5423aebfd80d3ef4346578335a9a72aeaee59ff6cb3582b35133d5160001c6100f69190610298565b60001b905090565b60008160008114610144576040517f08c379a000000000000000000000000000000000000000000000000000000000815260040161013b90610329565b60405180910390fd5b8260008190555082915050919050565b6000816000811461019a576040517f08c379a000000000000000000000000000000000000000000000000000000000815260040161019190610329565b60405180910390fd5b82915050919050565b6000819050919050565b6101b6816101a3565b82525050565b60006020820190506101d160008301846101ad565b92915050565b600080fd5b6000819050919050565b6101ef816101dc565b81146101fa57600080fd5b50565b60008135905061020c816101e6565b92915050565b600060208284031215610228576102276101d7565b5b6000610236848285016101fd565b91505092915050565b610248816101dc565b82525050565b6000602082019050610263600083018461023f565b92915050565b7f4e487b7100000000000000000000000000000000000000000000000000000000600052601160045260246000fd5b60006102a3826101dc565b91506102ae836101dc565b92508282039050818111156102c6576102c5610269565b5b92915050565b600082825260208201905092915050565b7f6f6e6c79203020697320616c6c6f776564000000000000000000000000000000600082015250565b60006103136011836102cc565b915061031e826102dd565b602082019050919050565b6000602082019050818103600083015261034281610306565b905091905056fea2646970667358221220607a0d086bdc90909fc027c9a75c435797ea5545bc401707d1a0a4033bc6a81564736f6c63430008100033",
  "immutableReferences": {},
  "source": "// SPDX-License-Identifier: MIT\npragma solidity >=0.6.8 <0.9.0;\n\ncontract DebugMsg {\n  uint256 counter = 0;\n\n  modifier validateNum(uint256 _num) {\n    require(_num == 0, \"only 0 is allowed\");\n    _;\n  }\n\n  constructor() {}\n\n  function updateCounter(uint256 _num)\n    public\n    validateNum(_num)\n    returns (uint256)\n  {\n    counter = _num;\n    return _num;\n  }\n\n  function returnParam(uint256 _num)\n    public\n    pure\n    validateNum(_num)\n    returns (uint256)\n  {\n    return _num;\n  }\n\n  function getByte32() public view returns(bytes32){\n    return bytes32(uint256(keccak256('eip1967.proxy.beacon')) - 1);\n  }\n}\n",
  "sourcePath": "/Users/hiroki.yasui/work/practice-by-yh/truffle/debug-msg/contracts/DebugMsg.sol",
  "compiler": {
    "name": "solc",
    "version": "0.8.16+commit.07a7930e.Emscripten.clang"
  },
  "schemaVersion": "3.4.7",
  "updatedAt": "2022-09-01T07:02:02.135Z",
  "networkType": "ethereum",
  "devdoc": {
    "kind": "dev",
    "methods": {},
    "version": 1
  },
  "userdoc": {
    "kind": "user",
    "methods": {},
    "version": 1
  }
}